:040000008031232800
:100008007E14803120007F08F0002100111C1E287A
:100018002000111C1E28043023020030031922027C
:10002800031C1928A201A3011D280130A2070030D2
:10003800A33D111070082000FF007E1009008031D8
:10004800252883314D238031A80083314E23A90010
:10005800A001A101A201A3017E10200083310B2B76
:100068008430200098009901F03097009601111013
:100078002100111420001814F030210099002000EC
:100088008E018F01900121000E1110109010101197
:100098008F100F158F120F1323008C148C158D15CC
:1000A8008D140F11013021009D0080309E009B01AE
:1000B8009C011D148231DC228031210012110B17A2
:1000C8008B172F002216251628162B16A214A514F6
:1000D800A814AB142814281C74282F00251476287B
:1000E8002F002510251C7B282F0022147D282F0087
:1000F80022102A162A1E83282F00271685282F004B
:100108002712271E8A282F0024168C282F00241235
:10011800241E91282F00211693282F0021122A151A
:100128002A1D99282F0027159B282F002711271DE6
:10013800A0282F002415A2282F002411241DA72849
:100148002F002115A9282F002111A016A01EAF28C5
:100158002F00A316B1282F00A312A31EB6282F0024
:10016800A616B8282F00A612A61EBD282F00A9166D
:10017800BF282F00A9122016201EC5282F002316DD
:10018800C7282F002312231ECC282F002616CE287E
:100198002F002612261ED3282F002916D5282F0017
:1001A80029122015201DDB282F002315DD282F00FC
:1001B8002311231DE2282F002615E4282F002611DD
:1001C800261DE9282F002915EB282F002911A01436
:1001D800A01CF1282F00A314F3282F00A310A31CA0
:1001E800F8282F00A614FA282F00A610A61CFF280E
:1001F8002F00A91401292F00A9102014201C072959
:100208002F00231409292F002310231C0E292F0047
:10021800261410292F002610261C15292F00291412
:1002280017292F002910121E172922122512281209
:100238002B12A210A510A810AB1028102510221000
:100248002A122712241221122A11271124112111EE
:10025800A012A312A612A9122012231226122912E2
:100268002011231126112911A010A310A610A910DE
:10027800201023102610291008002F00121EC6294E
:1002880071080F393D3E840083300318013E850014
:100298000008F3007308F40074182116741C211266
:1002A800F4182214F41C221074192814741D281030
:1002B800F4192A16F41D2A12741A2716741E271206
:1002C800F41A2416F41E2412741B2514741F251006
:1002D800710E0F393D3E840083300318013E8500BE
:1002E8000008F3007308F4007418A016741CA01218
:1002F800F4182115F41C211174192715741D2711E0
:10030800F419A916F41DA912741AA616741EA612B9
:10031800F41AA316F41EA312741B2415741F2411B7
:1003280072080F393D3E840083300318013E850072
:100338000008F3007308F40074182015741C2011C9
:10034800F4182016F41C201274192616741D26128F
:10035800F4192915F41D2911741A2615741E26116D
:10036800F41A2315F41E2311741B2316741F231269
:10037800720E0F39003A0319C329A614C429A6100E
:1003880001300800003008000A30F1000030F200A7
:100398007B08F4007A08F30082319722813120002B
:1003A80024087106F0397106A4000A30F100003003
:1003B800F2007B08F4007A08F3008231462281318A
:1003C8007208FB007108FA000A30F1000030F200F0
:1003D8007B08F4007A08F300823197228131710892
:1003E800FC00FC0E200024087C060F397C06A400C3
:1003F8000A30F1000030F2007B08F4007A08F300BC
:100408008231462281317208FB007108FA000A30F5
:10041800F1000030F2007B08F4007A08F300823122
:1004280097228131200025087106F0397106A50050
:100438000A30F1000030F2007B08F4007A08F3007B
:100448008231462281317208FB007108FA000A30B5
:10045800F1000030F2007B08F4007A08F3008231E2
:10046800972281317108FC00FC0E200025087C06CB
:100478000F397C06A5002508F2002408F100813117
:1004880041210800F701F21F502AF109F209F10A87
:100498000319F20AF701F70AF41F5B2AF309F409B2
:1004A800F30A0319F40A0130F5007508F706F80194
:1004B800F9017108720403198A2AF601F60AF21B77
:1004C8006F2A0130F135F20D890B662A0130F500EB
:1004D8007508F607632A0130F835F90D890B702A7B
:1004E80072087402031D7A2A71087302031C812A98
:1004F8007108F3027208F43B78140130F236F10CFB
:10050800890B822A0130F602031D6F2A7708031926
:10051800922AF809F909F80A0319F90A7908F20080
:100528007808F1000800F701F41FA12AF309F4097B
:10053800F30A0319F40AF701F70AF21FA82AF109C6
:10054800F209F10A0319F20A710872040319CF2A91
:10055800F601F60AF21BBA2A0130F135F20D890BC1
:10056800B12A0130F5007508F607AE2A7208740240
:10057800031DC02A71087302031CC62A7108F302FE
:100588007208F43B0130F236F10C890BC72A0130AE
:10059800F602031DBA2A77080319D72AF309F409C2
:1005A800F30A0319F40A7408F2007308F10008004A
:1005B8002F0092019217F0309205200098153730DD
:1005C8002F0098001430990013309A0091011113EC
:1005D80091121108F3390438910003309104A001F5
:1005E800A101A201A301A401A501A601A701A801D7
:1005F800A901AA01AB012000121130302F0095008B
:1006080093019317131393129401911708008031E3
:10061800342083312F00121E1A2B20002308A70034
:100628002208A6008331262383310E2B03102200D3
:100638008F1C0314031C232B22008F140E2B220063
:100648008F100E2B20002708FB002608FA008131A6
:10065800C8212F0029122A11A214A5142212251626
:1006680028122B122610A010A3102010AB10A814CB
:1006780008003F3406345B344F3466346D347D34BF
:1006880007347F34673477347C3439345E347934D2
:060698007134013400344E
:020000040001F9
:04000E00E4C1FFFF4B
:00000001FF
